{
  "_format": "hh-sol-artifact-1",
  "contractName": "SpaceWorms",
  "sourceName": "contracts/SpaceWorms.sol",
  "abi": [
    {
      "inputs": [],
      "stateMutability": "nonpayable",
      "type": "constructor"
    },
    {
      "anonymous": false,
      "inputs": [
        {
          "indexed": true,
          "internalType": "address",
          "name": "owner",
          "type": "address"
        },
        {
          "indexed": true,
          "internalType": "address",
          "name": "approved",
          "type": "address"
        },
        {
          "indexed": true,
          "internalType": "uint256",
          "name": "tokenId",
          "type": "uint256"
        }
      ],
      "name": "Approval",
      "type": "event"
    },
    {
      "anonymous": false,
      "inputs": [
        {
          "indexed": true,
          "internalType": "address",
          "name": "owner",
          "type": "address"
        },
        {
          "indexed": true,
          "internalType": "address",
          "name": "operator",
          "type": "address"
        },
        {
          "indexed": false,
          "internalType": "bool",
          "name": "approved",
          "type": "bool"
        }
      ],
      "name": "ApprovalForAll",
      "type": "event"
    },
    {
      "anonymous": false,
      "inputs": [
        {
          "indexed": true,
          "internalType": "address",
          "name": "previousOwner",
          "type": "address"
        },
        {
          "indexed": true,
          "internalType": "address",
          "name": "newOwner",
          "type": "address"
        }
      ],
      "name": "OwnershipTransferred",
      "type": "event"
    },
    {
      "anonymous": false,
      "inputs": [
        {
          "indexed": true,
          "internalType": "address",
          "name": "from",
          "type": "address"
        },
        {
          "indexed": true,
          "internalType": "address",
          "name": "to",
          "type": "address"
        },
        {
          "indexed": true,
          "internalType": "uint256",
          "name": "tokenId",
          "type": "uint256"
        }
      ],
      "name": "Transfer",
      "type": "event"
    },
    {
      "inputs": [],
      "name": "actualBalance",
      "outputs": [
        {
          "internalType": "uint256",
          "name": "",
          "type": "uint256"
        }
      ],
      "stateMutability": "view",
      "type": "function"
    },
    {
      "inputs": [
        {
          "internalType": "address",
          "name": "to",
          "type": "address"
        },
        {
          "internalType": "uint256",
          "name": "tokenId",
          "type": "uint256"
        }
      ],
      "name": "approve",
      "outputs": [],
      "stateMutability": "nonpayable",
      "type": "function"
    },
    {
      "inputs": [
        {
          "internalType": "address",
          "name": "owner",
          "type": "address"
        }
      ],
      "name": "balanceOf",
      "outputs": [
        {
          "internalType": "uint256",
          "name": "",
          "type": "uint256"
        }
      ],
      "stateMutability": "view",
      "type": "function"
    },
    {
      "inputs": [
        {
          "internalType": "uint256",
          "name": "tokenId",
          "type": "uint256"
        }
      ],
      "name": "getApproved",
      "outputs": [
        {
          "internalType": "address",
          "name": "",
          "type": "address"
        }
      ],
      "stateMutability": "view",
      "type": "function"
    },
    {
      "inputs": [
        {
          "internalType": "address",
          "name": "owner",
          "type": "address"
        },
        {
          "internalType": "address",
          "name": "operator",
          "type": "address"
        }
      ],
      "name": "isApprovedForAll",
      "outputs": [
        {
          "internalType": "bool",
          "name": "",
          "type": "bool"
        }
      ],
      "stateMutability": "view",
      "type": "function"
    },
    {
      "inputs": [
        {
          "internalType": "address",
          "name": "to",
          "type": "address"
        }
      ],
      "name": "mint",
      "outputs": [
        {
          "internalType": "uint256",
          "name": "",
          "type": "uint256"
        }
      ],
      "stateMutability": "payable",
      "type": "function"
    },
    {
      "inputs": [],
      "name": "name",
      "outputs": [
        {
          "internalType": "string",
          "name": "",
          "type": "string"
        }
      ],
      "stateMutability": "view",
      "type": "function"
    },
    {
      "inputs": [],
      "name": "owner",
      "outputs": [
        {
          "internalType": "address",
          "name": "",
          "type": "address"
        }
      ],
      "stateMutability": "view",
      "type": "function"
    },
    {
      "inputs": [
        {
          "internalType": "uint256",
          "name": "tokenId",
          "type": "uint256"
        }
      ],
      "name": "ownerOf",
      "outputs": [
        {
          "internalType": "address",
          "name": "",
          "type": "address"
        }
      ],
      "stateMutability": "view",
      "type": "function"
    },
    {
      "inputs": [],
      "name": "renounceOwnership",
      "outputs": [],
      "stateMutability": "nonpayable",
      "type": "function"
    },
    {
      "inputs": [
        {
          "internalType": "address",
          "name": "from",
          "type": "address"
        },
        {
          "internalType": "address",
          "name": "to",
          "type": "address"
        },
        {
          "internalType": "uint256",
          "name": "tokenId",
          "type": "uint256"
        }
      ],
      "name": "safeTransferFrom",
      "outputs": [],
      "stateMutability": "nonpayable",
      "type": "function"
    },
    {
      "inputs": [
        {
          "internalType": "address",
          "name": "from",
          "type": "address"
        },
        {
          "internalType": "address",
          "name": "to",
          "type": "address"
        },
        {
          "internalType": "uint256",
          "name": "tokenId",
          "type": "uint256"
        },
        {
          "internalType": "bytes",
          "name": "_data",
          "type": "bytes"
        }
      ],
      "name": "safeTransferFrom",
      "outputs": [],
      "stateMutability": "nonpayable",
      "type": "function"
    },
    {
      "inputs": [
        {
          "internalType": "address",
          "name": "operator",
          "type": "address"
        },
        {
          "internalType": "bool",
          "name": "approved",
          "type": "bool"
        }
      ],
      "name": "setApprovalForAll",
      "outputs": [],
      "stateMutability": "nonpayable",
      "type": "function"
    },
    {
      "inputs": [
        {
          "internalType": "bytes4",
          "name": "interfaceId",
          "type": "bytes4"
        }
      ],
      "name": "supportsInterface",
      "outputs": [
        {
          "internalType": "bool",
          "name": "",
          "type": "bool"
        }
      ],
      "stateMutability": "view",
      "type": "function"
    },
    {
      "inputs": [],
      "name": "symbol",
      "outputs": [
        {
          "internalType": "string",
          "name": "",
          "type": "string"
        }
      ],
      "stateMutability": "view",
      "type": "function"
    },
    {
      "inputs": [
        {
          "internalType": "uint256",
          "name": "tokenId",
          "type": "uint256"
        }
      ],
      "name": "tokenURI",
      "outputs": [
        {
          "internalType": "string",
          "name": "",
          "type": "string"
        }
      ],
      "stateMutability": "view",
      "type": "function"
    },
    {
      "inputs": [
        {
          "internalType": "address",
          "name": "from",
          "type": "address"
        },
        {
          "internalType": "address",
          "name": "to",
          "type": "address"
        },
        {
          "internalType": "uint256",
          "name": "tokenId",
          "type": "uint256"
        }
      ],
      "name": "transferFrom",
      "outputs": [],
      "stateMutability": "nonpayable",
      "type": "function"
    },
    {
      "inputs": [
        {
          "internalType": "address",
          "name": "newOwner",
          "type": "address"
        }
      ],
      "name": "transferOwnership",
      "outputs": [],
      "stateMutability": "nonpayable",
      "type": "function"
    },
    {
      "inputs": [
        {
          "internalType": "address payable",
          "name": "recipient",
          "type": "address"
        }
      ],
      "name": "withdraw",
      "outputs": [],
      "stateMutability": "nonpayable",
      "type": "function"
    }
  ],
  "bytecode": "0x608060405267016345785d8a0000600855600a600960146101000a81548160ff021916908360ff1602179055503480156200003957600080fd5b506040518060400160405280600a81526020017f5370616365576f726d73000000000000000000000000000000000000000000008152506040518060400160405280600381526020017f53574d00000000000000000000000000000000000000000000000000000000008152508160009080519060200190620000be929190620001ce565b508060019080519060200190620000d7929190620001ce565b505050620000fa620000ee6200010060201b60201c565b6200010860201b60201c565b620002e3565b600033905090565b6000600660009054906101000a900473ffffffffffffffffffffffffffffffffffffffff16905081600660006101000a81548173ffffffffffffffffffffffffffffffffffffffff021916908373ffffffffffffffffffffffffffffffffffffffff1602179055508173ffffffffffffffffffffffffffffffffffffffff168173ffffffffffffffffffffffffffffffffffffffff167f8be0079c531659141344cd1fd0a4f28419497f9722a3daafe3b4186f6b6457e060405160405180910390a35050565b828054620001dc906200027e565b90600052602060002090601f0160209004810192826200020057600085556200024c565b82601f106200021b57805160ff19168380011785556200024c565b828001600101855582156200024c579182015b828111156200024b5782518255916020019190600101906200022e565b5b5090506200025b91906200025f565b5090565b5b808211156200027a57600081600090555060010162000260565b5090565b600060028204905060018216806200029757607f821691505b60208210811415620002ae57620002ad620002b4565b5b50919050565b7f4e487b7100000000000000000000000000000000000000000000000000000000600052602260045260246000fd5b6133e880620002f36000396000f3fe6080604052600436106101145760003560e01c80636a627842116100a0578063a22cb46511610064578063a22cb465146103a4578063b88d4fde146103cd578063c87b56dd146103f6578063e985e9c514610433578063f2fde38b1461047057610114565b80636a627842146102ca57806370a08231146102fa578063715018a6146103375780638da5cb5b1461034e57806395d89b411461037957610114565b806323b872dd116100e757806323b872dd146101e757806339d1f9081461021057806342842e0e1461023b57806351cff8d9146102645780636352211e1461028d57610114565b806301ffc9a71461011957806306fdde0314610156578063081812fc14610181578063095ea7b3146101be575b600080fd5b34801561012557600080fd5b50610140600480360381019061013b91906122a1565b610499565b60405161014d9190612710565b60405180910390f35b34801561016257600080fd5b5061016b61057b565b604051610178919061272b565b60405180910390f35b34801561018d57600080fd5b506101a860048036038101906101a391906122f3565b61060d565b6040516101b591906126a9565b60405180910390f35b3480156101ca57600080fd5b506101e560048036038101906101e09190612265565b610692565b005b3480156101f357600080fd5b5061020e6004803603810190610209919061215f565b6107aa565b005b34801561021c57600080fd5b5061022561080a565b6040516102329190612a3d565b60405180910390f35b34801561024757600080fd5b50610262600480360381019061025d919061215f565b610817565b005b34801561027057600080fd5b5061028b600480360381019061028691906120fa565b610837565b005b34801561029957600080fd5b506102b460048036038101906102af91906122f3565b610903565b6040516102c191906126a9565b60405180910390f35b6102e460048036038101906102df91906120d1565b6109b5565b6040516102f19190612a3d565b60405180910390f35b34801561030657600080fd5b50610321600480360381019061031c91906120d1565b610bd4565b60405161032e9190612a3d565b60405180910390f35b34801561034357600080fd5b5061034c610c8c565b005b34801561035a57600080fd5b50610363610d14565b60405161037091906126a9565b60405180910390f35b34801561038557600080fd5b5061038e610d3e565b60405161039b919061272b565b60405180910390f35b3480156103b057600080fd5b506103cb60048036038101906103c69190612229565b610dd0565b005b3480156103d957600080fd5b506103f460048036038101906103ef91906121ae565b610de6565b005b34801561040257600080fd5b5061041d600480360381019061041891906122f3565b610e48565b60405161042a919061272b565b60405180910390f35b34801561043f57600080fd5b5061045a60048036038101906104559190612123565b610eef565b6040516104679190612710565b60405180910390f35b34801561047c57600080fd5b50610497600480360381019061049291906120d1565b610f83565b005b60007f80ac58cd000000000000000000000000000000000000000000000000000000007bffffffffffffffffffffffffffffffffffffffffffffffffffffffff1916827bffffffffffffffffffffffffffffffffffffffffffffffffffffffff1916148061056457507f5b5e139f000000000000000000000000000000000000000000000000000000007bffffffffffffffffffffffffffffffffffffffffffffffffffffffff1916827bffffffffffffffffffffffffffffffffffffffffffffffffffffffff1916145b8061057457506105738261107b565b5b9050919050565b60606000805461058a90612c74565b80601f01602080910402602001604051908101604052809291908181526020018280546105b690612c74565b80156106035780601f106105d857610100808354040283529160200191610603565b820191906000526020600020905b8154815290600101906020018083116105e657829003601f168201915b5050505050905090565b6000610618826110e5565b610657576040517f08c379a000000000000000000000000000000000000000000000000000000000815260040161064e9061299d565b60405180910390fd5b6004600083815260200190815260200160002060009054906101000a900473ffffffffffffffffffffffffffffffffffffffff169050919050565b600061069d82610903565b90508073ffffffffffffffffffffffffffffffffffffffff168373ffffffffffffffffffffffffffffffffffffffff16141561070e576040517f08c379a0000000000000000000000000000000000000000000000000000000008152600401610705906129fd565b60405180910390fd5b8073ffffffffffffffffffffffffffffffffffffffff1661072d611151565b73ffffffffffffffffffffffffffffffffffffffff16148061075c575061075b81610756611151565b610eef565b5b61079b576040517f08c379a0000000000000000000000000000000000000000000000000000000008152600401610792906128fd565b60405180910390fd5b6107a58383611159565b505050565b6107bb6107b5611151565b82611212565b6107fa576040517f08c379a00000000000000000000000000000000000000000000000000000000081526004016107f190612a1d565b60405180910390fd5b6108058383836112f0565b505050565b6000804790508091505090565b61083283838360405180602001604052806000815250610de6565b505050565b61083f611151565b73ffffffffffffffffffffffffffffffffffffffff1661085d610d14565b73ffffffffffffffffffffffffffffffffffffffff16146108b3576040517f08c379a00000000000000000000000000000000000000000000000000000000081526004016108aa906129bd565b60405180910390fd5b60004790508173ffffffffffffffffffffffffffffffffffffffff166108fc829081150290604051600060405180830381858888f193505050501580156108fe573d6000803e3d6000fd5b505050565b6000806002600084815260200190815260200160002060009054906101000a900473ffffffffffffffffffffffffffffffffffffffff169050600073ffffffffffffffffffffffffffffffffffffffff168173ffffffffffffffffffffffffffffffffffffffff1614156109ac576040517f08c379a00000000000000000000000000000000000000000000000000000000081526004016109a39061293d565b60405180910390fd5b80915050919050565b60006109f66040518060400160405280600d81526020017f6d73672e73656e646572203a200000000000000000000000000000000000000081525033611557565b610a356040518060400160405280600c81526020017f6d73672e76616c7565203a200000000000000000000000000000000000000000815250346115f3565b610a766040518060400160405280600881526020017f7072696365203a200000000000000000000000000000000000000000000000008152506008546115f3565b610ab96040518060400160405280601181526020017f636f6d7061726520726573756c74203a20000000000000000000000000000000815250600854341461168f565b6001610ac483610bd4565b1115610b05576040517f08c379a0000000000000000000000000000000000000000000000000000000008152600401610afc906127fd565b60405180910390fd5b600960149054906101000a900460ff1660ff16610b22600761172b565b10610b62576040517f08c379a0000000000000000000000000000000000000000000000000000000008152600401610b599061297d565b60405180910390fd5b6008543414610ba6576040517f08c379a0000000000000000000000000000000000000000000000000000000008152600401610b9d9061287d565b60405180910390fd5b610bb06007611739565b610bc382610bbe600761172b565b61174f565b610bcd600761172b565b9050919050565b60008073ffffffffffffffffffffffffffffffffffffffff168273ffffffffffffffffffffffffffffffffffffffff161415610c45576040517f08c379a0000000000000000000000000000000000000000000000000000000008152600401610c3c9061291d565b60405180910390fd5b600360008373ffffffffffffffffffffffffffffffffffffffff1673ffffffffffffffffffffffffffffffffffffffff168152602001908152602001600020549050919050565b610c94611151565b73ffffffffffffffffffffffffffffffffffffffff16610cb2610d14565b73ffffffffffffffffffffffffffffffffffffffff1614610d08576040517f08c379a0000000000000000000000000000000000000000000000000000000008152600401610cff906129bd565b60405180910390fd5b610d12600061176d565b565b6000600660009054906101000a900473ffffffffffffffffffffffffffffffffffffffff16905090565b606060018054610d4d90612c74565b80601f0160208091040260200160405190810160405280929190818152602001828054610d7990612c74565b8015610dc65780601f10610d9b57610100808354040283529160200191610dc6565b820191906000526020600020905b815481529060010190602001808311610da957829003601f168201915b5050505050905090565b610de2610ddb611151565b8383611833565b5050565b610df7610df1611151565b83611212565b610e36576040517f08c379a0000000000000000000000000000000000000000000000000000000008152600401610e2d90612a1d565b60405180910390fd5b610e42848484846119a0565b50505050565b6060610e53826110e5565b610e92576040517f08c379a0000000000000000000000000000000000000000000000000000000008152600401610e89906129dd565b60405180910390fd5b6000610e9c6119fc565b90506000815111610ebc5760405180602001604052806000815250610ee7565b80610ec684611a1c565b604051602001610ed7929190612685565b6040516020818303038152906040525b915050919050565b6000600560008473ffffffffffffffffffffffffffffffffffffffff1673ffffffffffffffffffffffffffffffffffffffff16815260200190815260200160002060008373ffffffffffffffffffffffffffffffffffffffff1673ffffffffffffffffffffffffffffffffffffffff16815260200190815260200160002060009054906101000a900460ff16905092915050565b610f8b611151565b73ffffffffffffffffffffffffffffffffffffffff16610fa9610d14565b73ffffffffffffffffffffffffffffffffffffffff1614610fff576040517f08c379a0000000000000000000000000000000000000000000000000000000008152600401610ff6906129bd565b60405180910390fd5b600073ffffffffffffffffffffffffffffffffffffffff168173ffffffffffffffffffffffffffffffffffffffff16141561106f576040517f08c379a00000000000000000000000000000000000000000000000000000000081526004016110669061281d565b60405180910390fd5b6110788161176d565b50565b60007f01ffc9a7000000000000000000000000000000000000000000000000000000007bffffffffffffffffffffffffffffffffffffffffffffffffffffffff1916827bffffffffffffffffffffffffffffffffffffffffffffffffffffffff1916149050919050565b60008073ffffffffffffffffffffffffffffffffffffffff166002600084815260200190815260200160002060009054906101000a900473ffffffffffffffffffffffffffffffffffffffff1673ffffffffffffffffffffffffffffffffffffffff1614159050919050565b600033905090565b816004600083815260200190815260200160002060006101000a81548173ffffffffffffffffffffffffffffffffffffffff021916908373ffffffffffffffffffffffffffffffffffffffff160217905550808273ffffffffffffffffffffffffffffffffffffffff166111cc83610903565b73ffffffffffffffffffffffffffffffffffffffff167f8c5be1e5ebec7d5bd14f71427d1e84f3dd0314c0f7b2291e5b200ac8c7c3b92560405160405180910390a45050565b600061121d826110e5565b61125c576040517f08c379a0000000000000000000000000000000000000000000000000000000008152600401611253906128dd565b60405180910390fd5b600061126783610903565b90508073ffffffffffffffffffffffffffffffffffffffff168473ffffffffffffffffffffffffffffffffffffffff1614806112a957506112a88185610eef565b5b806112e757508373ffffffffffffffffffffffffffffffffffffffff166112cf8461060d565b73ffffffffffffffffffffffffffffffffffffffff16145b91505092915050565b8273ffffffffffffffffffffffffffffffffffffffff1661131082610903565b73ffffffffffffffffffffffffffffffffffffffff1614611366576040517f08c379a000000000000000000000000000000000000000000000000000000000815260040161135d9061283d565b60405180910390fd5b600073ffffffffffffffffffffffffffffffffffffffff168273ffffffffffffffffffffffffffffffffffffffff1614156113d6576040517f08c379a00000000000000000000000000000000000000000000000000000000081526004016113cd9061289d565b60405180910390fd5b6113e1838383611bc9565b6113ec600082611159565b6001600360008573ffffffffffffffffffffffffffffffffffffffff1673ffffffffffffffffffffffffffffffffffffffff168152602001908152602001600020600082825461143c9190612b78565b925050819055506001600360008473ffffffffffffffffffffffffffffffffffffffff1673ffffffffffffffffffffffffffffffffffffffff16815260200190815260200160002060008282546114939190612af1565b92505081905550816002600083815260200190815260200160002060006101000a81548173ffffffffffffffffffffffffffffffffffffffff021916908373ffffffffffffffffffffffffffffffffffffffff160217905550808273ffffffffffffffffffffffffffffffffffffffff168473ffffffffffffffffffffffffffffffffffffffff167fddf252ad1be2c89b69c2b068fc378daa952ba7f163c4a11628f55a4df523b3ef60405160405180910390a4611552838383611bce565b505050565b6115ef828260405160240161156d92919061274d565b6040516020818303038152906040527f319af333000000000000000000000000000000000000000000000000000000007bffffffffffffffffffffffffffffffffffffffffffffffffffffffff19166020820180517bffffffffffffffffffffffffffffffffffffffffffffffffffffffff8381831617835250505050611bd3565b5050565b61168b82826040516024016116099291906127ad565b6040516020818303038152906040527f9710a9d0000000000000000000000000000000000000000000000000000000007bffffffffffffffffffffffffffffffffffffffffffffffffffffffff19166020820180517bffffffffffffffffffffffffffffffffffffffffffffffffffffffff8381831617835250505050611bd3565b5050565b61172782826040516024016116a592919061277d565b6040516020818303038152906040527fc3b55635000000000000000000000000000000000000000000000000000000007bffffffffffffffffffffffffffffffffffffffffffffffffffffffff19166020820180517bffffffffffffffffffffffffffffffffffffffffffffffffffffffff8381831617835250505050611bd3565b5050565b600081600001549050919050565b6001816000016000828254019250508190555050565b611769828260405180602001604052806000815250611bfc565b5050565b6000600660009054906101000a900473ffffffffffffffffffffffffffffffffffffffff16905081600660006101000a81548173ffffffffffffffffffffffffffffffffffffffff021916908373ffffffffffffffffffffffffffffffffffffffff1602179055508173ffffffffffffffffffffffffffffffffffffffff168173ffffffffffffffffffffffffffffffffffffffff167f8be0079c531659141344cd1fd0a4f28419497f9722a3daafe3b4186f6b6457e060405160405180910390a35050565b8173ffffffffffffffffffffffffffffffffffffffff168373ffffffffffffffffffffffffffffffffffffffff1614156118a2576040517f08c379a0000000000000000000000000000000000000000000000000000000008152600401611899906128bd565b60405180910390fd5b80600560008573ffffffffffffffffffffffffffffffffffffffff1673ffffffffffffffffffffffffffffffffffffffff16815260200190815260200160002060008473ffffffffffffffffffffffffffffffffffffffff1673ffffffffffffffffffffffffffffffffffffffff16815260200190815260200160002060006101000a81548160ff0219169083151502179055508173ffffffffffffffffffffffffffffffffffffffff168373ffffffffffffffffffffffffffffffffffffffff167f17307eab39ab6107e8899845ad3d59bd9653f200f220920489ca2b5937696c31836040516119939190612710565b60405180910390a3505050565b6119ab8484846112f0565b6119b784848484611c57565b6119f6576040517f08c379a00000000000000000000000000000000000000000000000000000000081526004016119ed906127dd565b60405180910390fd5b50505050565b606060405180606001604052806028815260200161338b60289139905090565b60606000821415611a64576040518060400160405280600181526020017f30000000000000000000000000000000000000000000000000000000000000008152509050611bc4565b600082905060005b60008214611a96578080611a7f90612cd7565b915050600a82611a8f9190612b47565b9150611a6c565b60008167ffffffffffffffff811115611ad8577f4e487b7100000000000000000000000000000000000000000000000000000000600052604160045260246000fd5b6040519080825280601f01601f191660200182016040528015611b0a5781602001600182028036833780820191505090505b5090505b60008514611bbd57600182611b239190612b78565b9150600a85611b329190612d20565b6030611b3e9190612af1565b60f81b818381518110611b7a577f4e487b7100000000000000000000000000000000000000000000000000000000600052603260045260246000fd5b60200101907effffffffffffffffffffffffffffffffffffffffffffffffffffffffffffff1916908160001a905350600a85611bb69190612b47565b9450611b0e565b8093505050505b919050565b505050565b505050565b60008151905060006a636f6e736f6c652e6c6f679050602083016000808483855afa5050505050565b611c068383611dee565b611c136000848484611c57565b611c52576040517f08c379a0000000000000000000000000000000000000000000000000000000008152600401611c49906127dd565b60405180910390fd5b505050565b6000611c788473ffffffffffffffffffffffffffffffffffffffff16611fc8565b15611de1578373ffffffffffffffffffffffffffffffffffffffff1663150b7a02611ca1611151565b8786866040518563ffffffff1660e01b8152600401611cc394939291906126c4565b602060405180830381600087803b158015611cdd57600080fd5b505af1925050508015611d0e57506040513d601f19601f82011682018060405250810190611d0b91906122ca565b60015b611d91573d8060008114611d3e576040519150601f19603f3d011682016040523d82523d6000602084013e611d43565b606091505b50600081511415611d89576040517f08c379a0000000000000000000000000000000000000000000000000000000008152600401611d80906127dd565b60405180910390fd5b805181602001fd5b63150b7a0260e01b7bffffffffffffffffffffffffffffffffffffffffffffffffffffffff1916817bffffffffffffffffffffffffffffffffffffffffffffffffffffffff191614915050611de6565b600190505b949350505050565b600073ffffffffffffffffffffffffffffffffffffffff168273ffffffffffffffffffffffffffffffffffffffff161415611e5e576040517f08c379a0000000000000000000000000000000000000000000000000000000008152600401611e559061295d565b60405180910390fd5b611e67816110e5565b15611ea7576040517f08c379a0000000000000000000000000000000000000000000000000000000008152600401611e9e9061285d565b60405180910390fd5b611eb360008383611bc9565b6001600360008473ffffffffffffffffffffffffffffffffffffffff1673ffffffffffffffffffffffffffffffffffffffff1681526020019081526020016000206000828254611f039190612af1565b92505081905550816002600083815260200190815260200160002060006101000a81548173ffffffffffffffffffffffffffffffffffffffff021916908373ffffffffffffffffffffffffffffffffffffffff160217905550808273ffffffffffffffffffffffffffffffffffffffff16600073ffffffffffffffffffffffffffffffffffffffff167fddf252ad1be2c89b69c2b068fc378daa952ba7f163c4a11628f55a4df523b3ef60405160405180910390a4611fc460008383611bce565b5050565b6000808273ffffffffffffffffffffffffffffffffffffffff163b119050919050565b6000611ffe611ff984612a7d565b612a58565b90508281526020810184848401111561201657600080fd5b612021848285612c32565b509392505050565b60008135905061203881613317565b92915050565b60008135905061204d8161332e565b92915050565b60008135905061206281613345565b92915050565b6000813590506120778161335c565b92915050565b60008151905061208c8161335c565b92915050565b600082601f8301126120a357600080fd5b81356120b3848260208601611feb565b91505092915050565b6000813590506120cb81613373565b92915050565b6000602082840312156120e357600080fd5b60006120f184828501612029565b91505092915050565b60006020828403121561210c57600080fd5b600061211a8482850161203e565b91505092915050565b6000806040838503121561213657600080fd5b600061214485828601612029565b925050602061215585828601612029565b9150509250929050565b60008060006060848603121561217457600080fd5b600061218286828701612029565b935050602061219386828701612029565b92505060406121a4868287016120bc565b9150509250925092565b600080600080608085870312156121c457600080fd5b60006121d287828801612029565b94505060206121e387828801612029565b93505060406121f4878288016120bc565b925050606085013567ffffffffffffffff81111561221157600080fd5b61221d87828801612092565b91505092959194509250565b6000806040838503121561223c57600080fd5b600061224a85828601612029565b925050602061225b85828601612053565b9150509250929050565b6000806040838503121561227857600080fd5b600061228685828601612029565b9250506020612297858286016120bc565b9150509250929050565b6000602082840312156122b357600080fd5b60006122c184828501612068565b91505092915050565b6000602082840312156122dc57600080fd5b60006122ea8482850161207d565b91505092915050565b60006020828403121561230557600080fd5b6000612313848285016120bc565b91505092915050565b61232581612bac565b82525050565b61233481612bd0565b82525050565b600061234582612aae565b61234f8185612ac4565b935061235f818560208601612c41565b61236881612e0d565b840191505092915050565b600061237e82612ab9565b6123888185612ad5565b9350612398818560208601612c41565b6123a181612e0d565b840191505092915050565b60006123b782612ab9565b6123c18185612ae6565b93506123d1818560208601612c41565b80840191505092915050565b60006123ea603283612ad5565b91506123f582612e1e565b604082019050919050565b600061240d602983612ad5565b915061241882612e6d565b604082019050919050565b6000612430602683612ad5565b915061243b82612ebc565b604082019050919050565b6000612453602583612ad5565b915061245e82612f0b565b604082019050919050565b6000612476601c83612ad5565b915061248182612f5a565b602082019050919050565b6000612499601983612ad5565b91506124a482612f83565b602082019050919050565b60006124bc602483612ad5565b91506124c782612fac565b604082019050919050565b60006124df601983612ad5565b91506124ea82612ffb565b602082019050919050565b6000612502602c83612ad5565b915061250d82613024565b604082019050919050565b6000612525603883612ad5565b915061253082613073565b604082019050919050565b6000612548602a83612ad5565b9150612553826130c2565b604082019050919050565b600061256b602983612ad5565b915061257682613111565b604082019050919050565b600061258e602083612ad5565b915061259982613160565b602082019050919050565b60006125b1601983612ad5565b91506125bc82613189565b602082019050919050565b60006125d4602c83612ad5565b91506125df826131b2565b604082019050919050565b60006125f7602083612ad5565b915061260282613201565b602082019050919050565b600061261a602f83612ad5565b91506126258261322a565b604082019050919050565b600061263d602183612ad5565b915061264882613279565b604082019050919050565b6000612660603183612ad5565b915061266b826132c8565b604082019050919050565b61267f81612c28565b82525050565b600061269182856123ac565b915061269d82846123ac565b91508190509392505050565b60006020820190506126be600083018461231c565b92915050565b60006080820190506126d9600083018761231c565b6126e6602083018661231c565b6126f36040830185612676565b8181036060830152612705818461233a565b905095945050505050565b6000602082019050612725600083018461232b565b92915050565b600060208201905081810360008301526127458184612373565b905092915050565b600060408201905081810360008301526127678185612373565b9050612776602083018461231c565b9392505050565b600060408201905081810360008301526127978185612373565b90506127a6602083018461232b565b9392505050565b600060408201905081810360008301526127c78185612373565b90506127d66020830184612676565b9392505050565b600060208201905081810360008301526127f6816123dd565b9050919050565b6000602082019050818103600083015261281681612400565b9050919050565b6000602082019050818103600083015261283681612423565b9050919050565b6000602082019050818103600083015261285681612446565b9050919050565b6000602082019050818103600083015261287681612469565b9050919050565b600060208201905081810360008301526128968161248c565b9050919050565b600060208201905081810360008301526128b6816124af565b9050919050565b600060208201905081810360008301526128d6816124d2565b9050919050565b600060208201905081810360008301526128f6816124f5565b9050919050565b6000602082019050818103600083015261291681612518565b9050919050565b600060208201905081810360008301526129368161253b565b9050919050565b600060208201905081810360008301526129568161255e565b9050919050565b6000602082019050818103600083015261297681612581565b9050919050565b60006020820190508181036000830152612996816125a4565b9050919050565b600060208201905081810360008301526129b6816125c7565b9050919050565b600060208201905081810360008301526129d6816125ea565b9050919050565b600060208201905081810360008301526129f68161260d565b9050919050565b60006020820190508181036000830152612a1681612630565b9050919050565b60006020820190508181036000830152612a3681612653565b9050919050565b6000602082019050612a526000830184612676565b92915050565b6000612a62612a73565b9050612a6e8282612ca6565b919050565b6000604051905090565b600067ffffffffffffffff821115612a9857612a97612dde565b5b612aa182612e0d565b9050602081019050919050565b600081519050919050565b600081519050919050565b600082825260208201905092915050565b600082825260208201905092915050565b600081905092915050565b6000612afc82612c28565b9150612b0783612c28565b9250827fffffffffffffffffffffffffffffffffffffffffffffffffffffffffffffffff03821115612b3c57612b3b612d51565b5b828201905092915050565b6000612b5282612c28565b9150612b5d83612c28565b925082612b6d57612b6c612d80565b5b828204905092915050565b6000612b8382612c28565b9150612b8e83612c28565b925082821015612ba157612ba0612d51565b5b828203905092915050565b6000612bb782612c08565b9050919050565b6000612bc982612c08565b9050919050565b60008115159050919050565b60007fffffffff0000000000000000000000000000000000000000000000000000000082169050919050565b600073ffffffffffffffffffffffffffffffffffffffff82169050919050565b6000819050919050565b82818337600083830152505050565b60005b83811015612c5f578082015181840152602081019050612c44565b83811115612c6e576000848401525b50505050565b60006002820490506001821680612c8c57607f821691505b60208210811415612ca057612c9f612daf565b5b50919050565b612caf82612e0d565b810181811067ffffffffffffffff82111715612cce57612ccd612dde565b5b80604052505050565b6000612ce282612c28565b91507fffffffffffffffffffffffffffffffffffffffffffffffffffffffffffffffff821415612d1557612d14612d51565b5b600182019050919050565b6000612d2b82612c28565b9150612d3683612c28565b925082612d4657612d45612d80565b5b828206905092915050565b7f4e487b7100000000000000000000000000000000000000000000000000000000600052601160045260246000fd5b7f4e487b7100000000000000000000000000000000000000000000000000000000600052601260045260246000fd5b7f4e487b7100000000000000000000000000000000000000000000000000000000600052602260045260246000fd5b7f4e487b7100000000000000000000000000000000000000000000000000000000600052604160045260246000fd5b6000601f19601f8301169050919050565b7f4552433732313a207472616e7366657220746f206e6f6e20455243373231526560008201527f63656976657220696d706c656d656e7465720000000000000000000000000000602082015250565b7f4561636820616464726573732063616e206f6e6c79206861766520757020746f60008201527f2074776f204e4654730000000000000000000000000000000000000000000000602082015250565b7f4f776e61626c653a206e6577206f776e657220697320746865207a65726f206160008201527f6464726573730000000000000000000000000000000000000000000000000000602082015250565b7f4552433732313a207472616e736665722066726f6d20696e636f72726563742060008201527f6f776e6572000000000000000000000000000000000000000000000000000000602082015250565b7f4552433732313a20746f6b656e20616c7265616479206d696e74656400000000600082015250565b7f596f7520646f6e2774206861766520656e6f75676820424e4200000000000000600082015250565b7f4552433732313a207472616e7366657220746f20746865207a65726f2061646460008201527f7265737300000000000000000000000000000000000000000000000000000000602082015250565b7f4552433732313a20617070726f766520746f2063616c6c657200000000000000600082015250565b7f4552433732313a206f70657261746f7220717565727920666f72206e6f6e657860008201527f697374656e7420746f6b656e0000000000000000000000000000000000000000602082015250565b7f4552433732313a20617070726f76652063616c6c6572206973206e6f74206f7760008201527f6e6572206e6f7220617070726f76656420666f7220616c6c0000000000000000602082015250565b7f4552433732313a2062616c616e636520717565727920666f7220746865207a6560008201527f726f206164647265737300000000000000000000000000000000000000000000602082015250565b7f4552433732313a206f776e657220717565727920666f72206e6f6e657869737460008201527f656e7420746f6b656e0000000000000000000000000000000000000000000000602082015250565b7f4552433732313a206d696e7420746f20746865207a65726f2061646472657373600082015250565b7f416c6c204e4654732068617665206265656e206d696e74656400000000000000600082015250565b7f4552433732313a20617070726f76656420717565727920666f72206e6f6e657860008201527f697374656e7420746f6b656e0000000000000000000000000000000000000000602082015250565b7f4f776e61626c653a2063616c6c6572206973206e6f7420746865206f776e6572600082015250565b7f4552433732314d657461646174613a2055524920717565727920666f72206e6f60008201527f6e6578697374656e7420746f6b656e0000000000000000000000000000000000602082015250565b7f4552433732313a20617070726f76616c20746f2063757272656e74206f776e6560008201527f7200000000000000000000000000000000000000000000000000000000000000602082015250565b7f4552433732313a207472616e736665722063616c6c6572206973206e6f74206f60008201527f776e6572206e6f7220617070726f766564000000000000000000000000000000602082015250565b61332081612bac565b811461332b57600080fd5b50565b61333781612bbe565b811461334257600080fd5b50565b61334e81612bd0565b811461335957600080fd5b50565b61336581612bdc565b811461337057600080fd5b50565b61337c81612c28565b811461338757600080fd5b5056fe68747470733a2f2f6e65676f63696f73797465636e6f6c6f676961732e6e65742f6572633732312fa26469706673582212203eac9653bbd37e6e152675c0fb0a57b3116e19767107730f831a10fe3709a78b64736f6c63430008010033",
  "linkReferences": {},
  "deployedLinkReferences": {}
}