{
  "_format": "hh-sol-artifact-1",
  "contractName": "Verify",
  "sourceName": "contracts/verify.sol",
  "abi": [
    {
      "inputs": [
        {
          "internalType": "bytes32",
          "name": "_hashedMessage",
          "type": "bytes32"
        },
        {
          "internalType": "uint8",
          "name": "_v",
          "type": "uint8"
        },
        {
          "internalType": "bytes32",
          "name": "_r",
          "type": "bytes32"
        },
        {
          "internalType": "bytes32",
          "name": "_s",
          "type": "bytes32"
        }
      ],
      "name": "VerifyMessage",
      "outputs": [
        {
          "internalType": "address",
          "name": "",
          "type": "address"
        }
      ],
      "stateMutability": "pure",
      "type": "function"
    }
  ],
  "bytecode": "0x608060405234801561001057600080fd5b506103b3806100206000396000f3fe608060405234801561001057600080fd5b506004361061002b5760003560e01c8063659934c114610030575b600080fd5b61004a60048036038101906100459190610153565b610060565b6040516100579190610253565b60405180910390f35b6000806040518060400160405280601c81526020017f19457468657265756d205369676e6564204d6573736167653a0a3332000000008152509050600081876040516020016100b092919061022b565b6040516020818303038152906040528051906020012090506000600182888888604051600081526020016040526040516100ed949392919061026e565b6020604051602081039080840390855afa15801561010f573d6000803e3d6000fd5b505050602060405103519050809350505050949350505050565b6000813590506101388161034f565b92915050565b60008135905061014d81610366565b92915050565b6000806000806080858703121561016957600080fd5b600061017787828801610129565b94505060206101888782880161013e565b935050604061019987828801610129565b92505060606101aa87828801610129565b91505092959194509250565b6101bf816102c9565b82525050565b6101ce816102db565b82525050565b6101e56101e0826102db565b610345565b82525050565b60006101f6826102b3565b61020081856102be565b9350610210818560208601610312565b80840191505092915050565b61022581610305565b82525050565b600061023782856101eb565b915061024382846101d4565b6020820191508190509392505050565b600060208201905061026860008301846101b6565b92915050565b600060808201905061028360008301876101c5565b610290602083018661021c565b61029d60408301856101c5565b6102aa60608301846101c5565b95945050505050565b600081519050919050565b600081905092915050565b60006102d4826102e5565b9050919050565b6000819050919050565b600073ffffffffffffffffffffffffffffffffffffffff82169050919050565b600060ff82169050919050565b60005b83811015610330578082015181840152602081019050610315565b8381111561033f576000848401525b50505050565b6000819050919050565b610358816102db565b811461036357600080fd5b50565b61036f81610305565b811461037a57600080fd5b5056fea2646970667358221220ff40674e88536499a011b57adf3d5ac6ffbbe57216e9a74ad109789472773bc564736f6c63430008010033",
  "linkReferences": {},
  "deployedLinkReferences": {}
}